:100000000C945D000C9485000C9485000C94850084
:100010000C9485000C9485000C9485000C9485004C
:100020000C9485000C9485000C9485000C941A04A3
:100030000C9485000C9485000C9485000C9485002C
:100040000C94D0030C9485000C949E030C947803BC
:100050000C9485000C9485000C9485000C9485000C
:100060000C9485000C9485000000000024002700FB
:100070002A0000000000250028002B0004040404CE
:100080000404040402020202020203030303030342
:10009000010204081020408001020408102001021F
:1000A00004081020000000080002010000030407FB
:1000B0000000000000000000DB0411241FBECFEF91
:1000C000D8E0DEBFCDBF11E0A0E0B1E0E8E6FEE0A1
:1000D00002C005900D92AA36B107D9F722E0AAE630
:1000E000B1E001C01D92AC37B207E1F710E0CDE5F9
:1000F000D0E004C02197FE010E942707CC35D1072C
:10010000C9F70E941A050C9432070C940000E9E923
:10011000F1E0A089B18982E08C93A485B5851C9219
:10012000A685B7858FEC8C93108EA489B58986E05F
:100130008C93A289B3898C9180618C93A289B389B5
:100140008C9188608C93A289B3898C9180688C9300
:100150000288F389E02D80818F7D80830895CF927E
:10016000DF92EF92FF920F931F932FB7F894C090F6
:100170009501D0909601E0909701F09098012FBFE3
:10018000DC01CB018C0D9D1DAE1DBF1D4FB7F8943A
:10019000009195011091960120919701309198015D
:1001A0004FBF0C151D052E053F0528F08017910740
:1001B000A207B30758F71F910F91FF90EF90DF90C0
:1001C000CF900895CF92DF92EF92FF920F931F93FB
:1001D000CF93DF936C017A018B01C0E0D0E0CE15A4
:1001E000DF0581F0D8016D918D01D601ED91FC9173
:1001F0000190F081E02DC6010995892B11F021961F
:10020000EECF7E01C701DF91CF911F910F91FF903B
:10021000EF90DF90CF900895089580E090E00895EA
:10022000FC01538D448D252F30E0842F90E0821BFC
:10023000930B541710F0CF96089501970895FC0181
:10024000918D828D981761F0828DDF01A80FB11D0D
:100250005D968C91928D9F5F9F73928F90E0089531
:100260008FEF9FEF0895FC01918D828D981731F0EB
:10027000828DE80FF11D858D90E008958FEF9FEF3F
:100280000895FC01918D228D892F90E0805C9F4F15
:10029000821B91098F739927089589E991E00E9443
:1002A000410121E0892B09F420E0822F0895FC010F
:1002B000848DDF01A80FB11DA35ABF4F2C91848DEF
:1002C00090E001968F739927848FA689B7892C9324
:1002D000A089B1898C91837080648C93938D848D77
:1002E000981306C00288F389E02D80818F7D80837A
:1002F0000895EF92FF920F931F93CF93DF93EC013A
:1003000081E0888F9B8D8C8D981305C0E889F989D1
:10031000808185FD26C0F62E0B8D10E00F5F1F4FEC
:100320000F731127E02E8C8DE8120CC00FB607FC5E
:10033000FACFE889F989808185FFF5CFCE010E9447
:100340005701F1CF8B8DFE01E80FF11DE35AFF4FEE
:10035000F0829FB7F8940B8FEA89FB8980818062D5
:100360000AC09FB7F894EE89FF896083E889F9890C
:1003700080818370806480839FBF81E090E0DF9103
:10038000CF911F910F91FF90EF900895CF93DF933E
:10039000EC01888D8823C9F0EA89FB89808185FD7D
:1003A00005C0A889B9898C9186FD0FC00FB607FCDE
:1003B000F5CF808185FFF2CFA889B9898C9185FF1F
:1003C000EDCFCE010E945701E7CFDF91CF91089585
:1003D00080E090E0892B29F00E944D0181110C945E
:1003E0000000089590E0FC01EC55FF4F2491FC01C2
:1003F000E057FF4F3491FC01E458FF4FE491EE23A6
:1004000009F43CC0222339F1233091F038F4213033
:10041000A9F0223001F584B58F7D12C0273091F00C
:100420002830A1F02430B9F4809180008F7D03C082
:10043000809180008F77809380000DC084B58F7786
:1004400084BD09C08091B0008F7703C08091B00057
:100450008F7D8093B000F0E0EE0FFF1FEE58FF4F4E
:10046000A591B4919FB7F894611104C08C91309517
:10047000382302C0EC913E2B3C939FBF0895CF934D
:10048000DF9390E0FC01E057FF4F2491FC01E4581A
:10049000FF4F8491882361F190E0880F991FFC0140
:1004A000E859FF4FC591D491FC01EE58FF4FA5913B
:1004B000B491611109C09FB7F89488812095822377
:1004C0008883EC912E230BC0623061F49FB7F894BF
:1004D0008881322F309583238883EC912E2B2C93A7
:1004E0009FBF06C08FB7F894E8812E2B28838FBF5B
:1004F000DF91CF9108953FB7F89480916C0190916E
:100500006D01A0916E01B0916F0126B5A89B05C049
:100510002F3F19F00196A11DB11D3FBFBA2FA92F82
:10052000982F8827820F911DA11DB11DBC01CD01FF
:1005300042E0660F771F881F991F4A95D1F70895EB
:100540008F929F92AF92BF92CF92DF92EF92FF92E3
:100550006B017C010E947B024B015C01C114D10440
:10056000E104F104F1F00E947B02DC01CB01881967
:100570009909AA09BB09883E9340A105B10570F30A
:1005800021E0C21AD108E108F10888EE880E83E064
:10059000981EA11CB11CC114D104E104F10419F787
:1005A000DDCFFF90EF90DF90CF90BF90AF909F9006
:1005B0008F900895009769F0FC0101900020E9F701
:1005C0003197AF01481B590BBC0189E991E00C94AC
:1005D000E20080E090E00895CF93DF930E94DA027A
:1005E000EC0187E391E00E94DA028C0F9D1FDF91FE
:1005F000CF9108958F929F92AF92BF92CF92DF9248
:10060000EF92FF920F931F93CF93DF93CDB7DEB797
:10061000A1970FB6F894DEBF0FBECDBF6C01990F46
:10062000EE08FF08F7FE2BC06DE289E991E00E9419
:1006300079018C0122273327A9012C193D094E0984
:100640005F0919A2CE0181967C019AE0892E912C36
:10065000A12CB12CCA01B901A50194010E94050782
:10066000605DF70162937F01211531054105510558
:1006700089F7CF010E94DA02080F191F1EC0A701D7
:10068000960119A28E010F5D1F4F8AE0C82ED12C52
:10069000E12CF12CCA01B901A70196010E940507BE
:1006A000605DF80162938F01211531054105510507
:1006B00089F7CF010E94DA028C0187E391E00E9462
:1006C000DA02800F911FA1960FB6F894DEBF0FBE1D
:1006D000CDBFDF91CF911F910F91FF90EF90DF90F1
:1006E000CF90BF90AF909F908F9008950E942D075C
:1006F0001F920F920FB60F9211242F933F934F9397
:100700005F936F937F938F939F93AF93BF93EF9379
:10071000FF9389E991E00E945701FF91EF91BF910A
:10072000AF919F918F917F916F915F914F913F9189
:100730002F910F900FBE0F901F9018951F920F9240
:100740000FB60F9211242F938F939F93EF93FF93E4
:10075000E091A901F091AA018081E091AF01F091AF
:10076000B00182FD12C090818091B2018F5F8F73C2
:100770002091B301821751F0E091B201F0E0E75609
:10078000FE4F958F8093B20101C08081FF91EF9160
:100790009F918F912F910F900FBE0F901F901895E2
:1007A0001F920F920FB60F9211242F933F938F93A6
:1007B0009F93AF93BF938091950190919601A091E3
:1007C0009701B091980130916B0123E0230F2D37F1
:1007D00020F40196A11DB11D05C026E8230F029645
:1007E000A11DB11D20936B018093950190939601FB
:1007F000A0939701B093980180916C0190916D0145
:10080000A0916E01B0916F010196A11DB11D809361
:100810006C0190936D01A0936E01B0936F01BF9135
:10082000AF919F918F913F912F910F900FBE0F909D
:100830001F9018951F920F920FB60F9211242F93AD
:100840003F934F935F936F937F938F939F93AF9358
:10085000BF93EF93FF9380916A0187FF05C01092C9
:100860008500109284001BC020916A01022E000CAA
:10087000330B8091940190E02817390784F480911C
:100880006A01082E000C990BFC01EE0FFF1F8E0F62
:100890009F1FFC01E059FE4F808186FD15C08091AD
:1008A0006A018F5F80936A0120916A01022E000C19
:1008B000330B8091940190E028173907C4F480919C
:1008C0006A018C3064F113C080916A01082E000C1B
:1008D000990BFC01EE0FFF1F8E0F9F1FFC01E059CB
:1008E000FE4F808160E08F730E94F201D8CF80912B
:1008F000840090918500049680349C4918F480E42B
:100900009CE905C0809184009091850004969093A5
:100910008900809388008FEF80936A013BC020910B
:1009200084003091850080916A01082E000C990B9B
:10093000FC01EE0FFF1F8E0F9F1FFC01E059FE4FC1
:1009400081819281820F931F909389008093880008
:1009500080916A01082E000C990BFC01EE0FFF1F1D
:100960008E0F9F1FFC01E059FE4F808186FF12C051
:1009700080916A01082E000C990BFC01EE0FFF1FFD
:100980008E0F9F1FFC01E059FE4F808161E08F7345
:100990000E94F201FF91EF91BF91AF919F918F91D2
:1009A0007F916F915F914F913F912F910F900FBE6B
:1009B0000F901F901895E9E9F1E01382128288EEFA
:1009C00093E0A0E0B0E084839583A683B7838AE1B7
:1009D00091E09183808385EC90E09587848784EC17
:1009E00090E09787868780EC90E0918B808B81ECFC
:1009F00090E0938B828B82EC90E0958B848B86ECDD
:100A000090E0978B868B118E128E138E148EE6E3F8
:100A1000F2E01682178210861186128613861486DB
:100A2000158616861786108A118A128A138A148AE6
:100A3000158A0895789484B5826084BD84B58160F8
:100A400084BD85B5826085BD85B5816085BD809199
:100A50006E00816080936E00109281008091810011
:100A60008260809381008091810081608093810009
:100A7000809180008160809380008091B1008460CB
:100A80008093B1008091B00081608093B00080912C
:100A90007A00846080937A0080917A0082608093EB
:100AA0007A0080917A00816080937A0080917A0048
:100AB000806880937A001092C100109278021092A0
:100AC000790210927A0210927B02109238021092F0
:100AD000390210923A0210923B0268EB7BE080E010
:100AE00090E00E94AF0060ED77E080E090E00E942F
:100AF000A0020E9487002FB7F894809195019091F1
:100B00009601A0919701B09198012FBF8093380270
:100B100090933902A0933A02B0933B0288E291E0AD
:100B20000E94DA026AE070E080E090E00E94AF008C
:100B300081E080934C0261E082E00E943F0261E02C
:100B400083E00E943F0261E084E00E943F0260E097
:100B50008FE00E943F020E948700809194018C30B8
:100B600088F491E0980F9093940190E0FC01EE0FCF
:100B7000FF1F8E0F9F1FFC01E059FE4F88EB9BE08B
:100B800092838183809194018C3088F491E0980F56
:100B90009093940190E0FC01EE0FFF1F8E0F9F1FBA
:100BA000FC01E059FE4F88EB9BE09283818311E4C6
:100BB00010937C0080917A00806480937A00809109
:100BC0007A0086FDFCCF809178002091790090E03A
:100BD000922B0E94FA028AE391E00E94EC0261E00B
:100BE00082E00E94F20164EC79E080E090E00E94F3
:100BF000A00261E083E00E94F20164EC79E080E011
:100C000090E00E94A00260E082E00E94F20160E2B7
:100C100073E080E090E00E94A00260E083E00E9428
:100C2000F20168EE73E080E090E00E94A00260EDC7
:100C300077E080E090E00E94A0028FE391E00E94C4
:100C4000EC0261E082E00E94F20161E083E00E9438
:100C5000F20168EB7BE080E090E00E94A00260E09F
:100C600082E00E94F20160E083E00E94F20168EEFF
:100C700073E080E090E00E94A00260ED77E080E009
:100C800090E00E94A00284E491E00E94EC0261E006
:100C900082E00E94F20168EB7BE080E090E00E943D
:100CA000A00261E083E00E94F20168EB7BE080E05B
:100CB00090E00E94A00260E082E00E94F20164EFF6
:100CC00071E080E090E00E94A00260E083E00E947A
:100CD000F20164EF71E080E090E00E94A00260ED1C
:100CE00077E080E090E00E94A00289E491E00E9419
:100CF000EC0261E082E00E94F20168EE73E080E0C5
:100D000090E00E94A00261E083E00E94F20168EEA0
:100D100073E080E090E00E94A00260E082E00E9428
:100D2000F20160E083E00E94F20160ED77E080E094
:100D300090E00E94A00260ED77E080E090E00E94E9
:100D4000A0028EE491E00E94EC02E12CF12CC7019C
:100D50000E94FA0261E082E00E94F20160ED77E019
:100D600080E090E00E94A00260E082E00E94F20138
:100D700061E083E00E94F20160ED77E080E090E0C6
:100D80000E94A00260E083E00E94F2018FEFE81A67
:100D9000F80A86E0E816F104D1F683E591E00E94B6
:100DA000EC02C6E1D1E0DA90CA90C6010E94FA02D4
:100DB00061E082E00E94F2010D2C000CEE08FF08B9
:100DC000C701B6010E94A00260E082E00E94F20129
:100DD00061E083E00E94F201C701B6010E94A00217
:100DE00060E083E00E94F20181E0C030D807D9F6CC
:100DF00088E591E00E94EC0260E177E280E090E01B
:100E00000E94A0020E94E801D3CEA1E21A2EAA1BE2
:100E1000BB1BFD010DC0AA1FBB1FEE1FFF1FA217AA
:100E2000B307E407F50720F0A21BB30BE40BF50BA7
:100E3000661F771F881F991F1A9469F76095709530
:100E4000809590959B01AC01BD01CF010895EE0FF7
:100E5000FF1F0590F491E02D099481E090E0F89453
:080E60000C943207F894FFCF57
:100E6800F401E803DC05D007C409B80BAC0DA00FEA
:100E7800941188137C15000000007901E20010012C
:100E8800C60141011F013301564D4450565F317C64
:100E9800315F564D4450560D0A0053657131005369
:100EA80065713200536571330053657134005365C1
:100EB80071350053657136007061757361206E6F0E
:0A0EC8002073697374656D6100000A
:00000001FF
